:1000000045C0000060C000005EC000005CC0000091
:100010005AC0000058C0000056C0000054C0000084
:1000200052C0000050C000004EC000004CC0000094
:100030004AC0000048C0000046C0000044C00000A4
:10004000ACC0000040C0000089C000003CC00000FF
:100050003AC0000038C0000036C0000034C00000C4
:1000600032C0000030C000002EC000002CC00000D4
:100070002AC0000028C0000026C0000024C00000E4
:1000800022C0000020C000001EC0000011241FBEBE
:10009000CFEFD0E1DEBFCDBF11E0A0E0B1E0EEE5F3
:1000A000FEE000E00BBF02C007900D92A232B10744
:1000B000D9F722E0A2E2B1E001C01D92AD39B2074A
:1000C000E1F7AFD2CAC69CCF2CB53DB5232BE1F3E7
:1000D00025E535E545E051E45DD620E030E048E433
:1000E00053E4CDD498D5673881E0780734F46A308A
:1000F00071052CF46AE070E002C066E871E0CB01A3
:10010000089690938500809384009BBD8ABD6850BB
:100110007109709387006093860079BD68BD08956A
:10012000CF9318BA88E8A0D483E49ED4C1E0C8BBBA
:1001300018BA80E999D480E097D4C8BB18BA80E295
:1001400093D4C8BBCF91089597B1907F890F87B999
:10015000369A349BFECF84B195B108951F920F92C9
:100160000FB60F9211240BB60F928F93EF93FF935C
:10017000E091480281E08E0F80934802F0E08CB15C
:10018000EE5CFE4F8083FF91EF918F910F900BBE3D
:100190000F900FBE0F901F9018951F920F920FB6E1
:1001A0000F9211240BB60F928F929F92AF92BF9233
:1001B000CF92DF92EF92FF922F933F934F935F93F3
:1001C0006F937F938F939F93AF93BF93CF93EF934F
:1001D000FF9383E882BFC1E0C5BB80E0B5DFBC010F
:1001E000990F880B990B4AD560937F027093800218
:1001F000809381029093820218BA88EE35D4C8BBEE
:1002000018BA88E631D435D4C82ED12CE12CF12C83
:10021000FE2CED2CDC2CCC242CD4C82AFE2CED2C6E
:10022000DC2CCC2426D4C82AFE2CED2CDC2CCC24AF
:1002300020D4C8BBC82AF094E094D094C094C11CC8
:10024000D11CE11CF11CC0928B02D0928C02E09276
:100250008D02F0928E0283E085BB60918B027091DB
:100260008C0280918D0290918E0208D520E030E0C2
:1002700042EA58E468D49B01AC0101D42BED3FE085
:1002800049E450E487D56093900270939102809383
:1002900092029093930260917F027091800280910C
:1002A00081029091820220E030E040E85AE372D56A
:1002B00020E030E040EA50E46DD520E030E040E25C
:1002C00050E4DCD320E030E040E251E463D5DC01CF
:1002D000CB01B0588093400290934102A093420218
:1002E000B093430290917E0289E2989F812D112460
:1002F00082958F7024E6829F90191124911102C07B
:1003000010927E0220917E028DEC289F812D112477
:10031000869586958695880F982F990F990F890F46
:1003200028132EC0609190027091910280919202E8
:1003300090919302209194023091950240919602FF
:10034000509197029BD32AE037ED43EA5BE3FBD35E
:1003500060932A0170932B0180932C0190932D01BF
:100360008091900290919102A0919202B09193029B
:100370008093940290939502A0939602B093970273
:1003800080917E028F5F80937E028DEC9CECACECC2
:10039000BDEB8093440290934502A0934602B09334
:1003A000470260917F02709180028091810290915A
:1003B000820220E030E040E85AE3ECD420E030E074
:1003C00040EA50E4E7D420E030E040E250E456D385
:1003D00020E030E040E251E4DDD4DC01CB01B05854
:1003E0008093400290934102A0934202B093430253
:1003F00060914402709145028091460290914702BB
:1004000020914002309141024091420250914302BA
:1004100035D36093360270933702809338029093FD
:1004200039026091360270913702809138029091C2
:1004300039028090980290909902A0909A02B09010
:100440009B022DEC3CEC4CEC5DE3A4D46B017C01F5
:1004500020E030E040EC5FE3C501B4019BD49B0198
:10046000AC01C701B6010BD3D6D3709323016093BF
:10047000220160912A0170912B0180912C019091B1
:100480002D01E0902201F09023012FED30EE4BE89A
:100490005DE380D44B015C01B701FF0C880B990B25
:1004A000EDD39B01AC01C501B401E9D2B4D3709383
:1004B000230160932201609136027091370280918E
:1004C000380290913902209198023091990240911E
:1004D0009A0250919B02D3D2609398027093990232
:1004E00080939A0290939B02809122019091230124
:1004F00049978CF188E190E0909323018093220149
:100500006091220170912301C0909802D0909902CD
:10051000E0909A02F0909B0268517109072E000C3E
:10052000880B990BABD32EE93EE549EA5DE30BD38B
:1005300020E030E040E450E406D39B01AC01C70169
:10054000B6019CD2609398027093990280939A02AC
:1005500090939B0237C08091220190912301883EA5
:100560009F4F84F588EE9FEF9093230180932201A3
:100570006091220170912301C0909802D09099025D
:10058000E0909A02F0909B02685E7F4F072E000C6D
:10059000880B990B73D32EE93EE549EA5DE3D3D28C
:1005A00020E030E040E450E4CED29B01AC01C70132
:1005B000B60164D2609398027093990280939A0274
:1005C00090939B026091220170912301072E000CF1
:1005D000880B990B53D378DD8091240190912501EC
:1005E00001969093250180932401FF91EF91CF9183
:1005F000BF91AF919F918F917F916F915F914F913B
:100600003F912F91FF90EF90DF90CF90BF90AF90F0
:100610009F908F900F900BBE0F900FBE0F901F906A
:100620001895CF93DF93CDB7DEB7AC970FB6F8949C
:10063000DEBF0FBECDBF8EEF8C838B838A83898311
:10064000BAD100D208D2C4D1C8D1DAD1109289006F
:10065000109288001DBC1CBC60E070E0CB0134DD52
:10066000ECD15EDD83E882BF7894B12C0F2EFCE2E2
:100670009F2EF02D0F2EF3E0AF2EF02D7E018DE298
:10068000E80EF11C0F2EFAE4CF2EF2E0DF2EF02D53
:100690006894772471F8882483942DC180919C02FA
:1006A0008130E1F018F08230E1F120C1E0918F0259
:1006B000F0E0EE5CFE4F80818F3F69F4809149024B
:1006C0008F5F8093490280914902843009F00EC106
:1006D00080929C020BC11092490208C1E09149022C
:1006E00081E08E0F80934902F0E0A0918F02B0E08C
:1006F000AE5CBE4F8C91E65BFD4F808380914902DA
:10070000883009F0F3C0F6019581809118019813A3
:1007100003C070929C02EAC010929C02109249029F
:10072000E5C0E091490281E08E0F80934902F0E03C
:10073000A0918F02B0E0AE5CBE4F8C91E65BFD4FA6
:100740008083E0918F02F0E0EE5CFE4F8081B80E76
:10075000F6019481809149029813B7C08781B8123D
:10076000AEC08681823009F0AAC06085718582851D
:10077000938584D220E030E04AE754E4E4D16093EA
:100780002601709327018093280190932901F60197
:10079000648575858685978571D220E030E04AE7CB
:1007A00054E4D1D160931D0170931E0180931F0109
:1007B00090932001F60160897189828993895ED2C4
:1007C00020E030E04AE754E4BED160931901709311
:1007D0001A0180931B0190931C01F60164897589AD
:1007E000868997894BD220E030E04AE754E4ABD1C8
:1007F0006093140170931501809316019093170173
:10080000F601608D718D828D938D38D220E030E0BD
:100810004AE754E498D160931001709311018093DA
:10082000120190931301F601648D758D868D978D5D
:1008300025D220E030E04AE754E485D160930C01F2
:1008400070930D0180930E0190930F01F60160A14A
:1008500071A182A193A112D220E030E04AE754E4D2
:1008600072D1609308017093090180930A019093FB
:100870000B01F60164A175A186A197A1FFD120E02B
:1008800030E04AE754E45FD16093040170930501BE
:100890008093060190930701F60160A571A582A5DA
:1008A00093A5ECD120E030E04AE754E44CD16093CA
:1008B0000001709301018093020190930301109253
:1008C0009C0210924902B12C11C0F60194818091D2
:1008D0004902981720F0809149028D3238F086E65F
:1008E000BFD010929C0210924902B12C80918F02CD
:1008F0008F5F80938F0290918F02809148029813AE
:10090000CDCE80912401909125014497A4F31092BB
:10091000250110922401809118018E839D82AF825F
:10092000188660912601709127018091280190918D
:10093000290120E030E04AE754E42CD26CD16987E9
:100940007A878B879C8760911D0170911E01809131
:100950001F019091200120E030E04AE754E41AD2D0
:100960005AD16D877E878F87988B6091190170911E
:100970001A0180911B0190911C0120E030E04AE7B0
:1009800054E408D248D1698B7A8B8B8B9C8BFE0107
:10099000399681919885890F8887EE15FF05C9F7EB
:1009A0008E010F5F1F4FF80181918F0159D00E15F5
:1009B0001F05C9F7A0CF8FEF8ABB84BB88E081BB3E
:1009C00087E687BB8AE182B91BBA87E088BB0895B6
:1009D00084E083BF81E087BF089582EE8FBD81E10F
:1009E0008EBD8FE891E097BD86BD10927900109280
:1009F00078001BBC1ABC19BC18BC1DBC1CBC0895DB
:100A000082EB80938B0081E180938A008FE891E0F4
:100A10009093810080938000109283001092820056
:100A20001092870010928600109285001092840028
:100A30001092890010928800089580E487B986E8B2
:100A400086B908951BB888E98AB986E08093950035
:100A500087E689B9089580E58DB981E08EB908955A
:100A60005D9BFECF8CB908958FB9779BFECF8FB178
:100A700008951FB8779BFECF8FB108955058BB27BC
:100A8000AA270ED04DC13ED130F043D120F031F431
:100A90009F3F11F41EF433C10EF4E095E7FB29C12A
:100AA000E92F4FD180F3BA176207730784079507C0
:100AB00018F071F49EF567C10EF4E0950B2EBA2F75
:100AC000A02D0B01B90190010C01CA01A001112454
:100AD000FF27591B99F0593F50F4503E68F11A1600
:100AE000F040A22F232F342F4427585FF3CF469591
:100AF00037952795A795F0405395C9F77EF41F16B3
:100B0000BA0B620B730B840BBAF09150A1F0FF0F7C
:100B1000BB1F661F771F881FC2F70EC0BA0F621F68
:100B2000731F841F48F4879577956795B795F79558
:100B30009E3F08F0B3CF9395880F08F09927EE0FEA
:100B40009795879508950CD0EBC0E3D040F0DAD0AC
:100B500030F021F45F3F19F0CCC0511115C1CFC066
:100B6000F0D098F39923C9F35523B1F3951B550B96
:100B7000BB27AA2762177307840738F09F5F5F4F70
:100B8000220F331F441FAA1FA9F333D00E2E3AF0B1
:100B9000E0E830D091505040E695001CCAF729D0CB
:100BA000FE2F27D0660F771F881FBB1F261737071A
:100BB0004807AB07B0E809F0BB0B802DBF01FF274A
:100BC00093585F4F2AF09E3F510568F092C0DCC0F9
:100BD0005F3FECF3983EDCF3869577956795B79584
:100BE000F7959F5FC9F7880F911D9695879597F99F
:100BF0000895E1E0660F771F881FBB1F6217730718
:100C00008407BA0720F0621B730B840BBA0BEE1F2C
:100C100088F7E095089504D06894B111B5C008959F
:100C200098D088F09F5790F0B92F9927B751A0F02E
:100C3000D1F0660F771F881F991F1AF0BA95C9F770
:100C400012C0B13081F09FD0B1E008959CC0672FF1
:100C5000782F8827B85F39F0B93FCCF38695779520
:100C60006795B395D9F73EF4909580957095619509
:100C70007F4F8F4F9F4F0895E89409C097FB3EF434
:100C800090958095709561957F4F8F4F9F4F9923D9
:100C9000A9F0F92F96E9BB279395F6958795779557
:100CA0006795B795F111F8CFFAF4BB0F11F460FF17
:100CB0001BC06F5F7F4F8F4F9F4F16C0882311F06F
:100CC00096E911C0772321F09EE8872F762F05C083
:100CD000662371F096E8862F70E060E02AF09A951E
:100CE000660F771F881FDAF7880F9695879597F913
:100CF000089597F99F6780E870E060E008959FEF9E
:100D000080EC089500240A941616170618060906A2
:100D1000089500240A941216130614060506089571
:100D2000092E0394000C11F4882352F0BB0F40F4F9
:100D3000BF2B11F460FF04C06F5F7F4F8F4F9F4F39
:100D4000089557FD9058440F551F59F05F3F71F0BB
:100D50004795880F97FB991F61F09F3F79F0879522
:100D60000895121613061406551FF2CF4695F1DFAB
:100D700008C0161617061806991FF1CF869571053B
:100D8000610508940895E894BB2766277727CB016F
:100D900097F908950BD0C4CFB5DF28F0BADF18F06B
:100DA000952309F0A6CFABCF1124EECFCADFA0F375
:100DB000959FD1F3950F50E0551F629FF001729FF0
:100DC000BB27F00DB11D639FAA27F00DB11DAA1F0F
:100DD000649F6627B00DA11D661F829F2227B00D5C
:100DE000A11D621F739FB00DA11D621F839FA00DE7
:100DF000611D221F749F3327A00D611D231F849F37
:100E0000600D211D822F762F6A2F11249F5750408D
:100E10008AF0E1F088234AF0EE0FFF1FBB1F661F28
:100E2000771F881F91505040A9F79E3F510570F0E1
:100E300060CFAACF5F3FECF3983EDCF386957795C1
:100E40006795B795F795E7959F5FC1F7FE2B880FDC
:0E0E5000911D9695879597F90895F894FFCF18
:100E5E000AD7233C0000C03F000060400000404025
:100E6E00000020426666A63F010000803F00008021
:020E7E003F0033
:00000001FF
