S01700004763634170706C69636174696F6E312E737265635B
S113000045C0000061C000005FC000005DC000008A
S11300105BC0000059C0000057C0000055C000007C
S113002053C0000051C000004FC000004DC000008C
S11300304BC0000049C0000047C0000045C000009C
S1130040AEC0000041C000008BC000003DC00000F5
S11300503BC0000039C0000037C0000035C00000BC
S113006033C0000031C000002FC000002DC00000CC
S11300702BC0000029C0000027C0000025C00000DC
S113008023C0000021C000001FC0000011241FBEB7
S1130090CFEFD0E1DEBFCDBF11E0A0E0B1E0EAE0F8
S11300A0F2E100E00BBF02C007900D92A632B10747
S11300B0D9F722E0A6E2B1E001C01D92AD3AB20741
S11300C0E1F75DD40C9403099BCF2CB53DB5232BEC
S11300D0E1F325E535E545E051E40E947C0820E0A4
S11300E030E048E453E479D644D7673881E07807B0
S11300F034F46A3071052CF46AE070E002C066E8FA
S113010071E0CB01089690938500809384009BBD99
S11301108ABD68507109709387006093860079BD29
S113012068BD0895CF9318BA88E84CD683E44AD6BC
S1130130C1E0C8BB18BA80E945D680E043D6C8BB45
S113014018BA80E23FD6C8BBCF91089597B1907F8B
S1130150890F87B9369A349BFECF84B195B108953F
S11301601F920F920FB60F9211240BB60F928F931A
S1130170EF93FF93E091580281E08E0F8093580231
S1130180F0E08CB1E65CFE4F8083FF91EF918F919C
S11301900F900BBE0F900FBE0F901F9018951F92DB
S11301A00F920FB60F9211240BB60F924F925F92DB
S11301B06F927F928F929F92AF92BF92CF92DF9273
S11301C0EF92FF922F933F934F935F936F937F939D
S11301D08F939F93AF93BF93CF93EF93FF9383E852
S11301E082BFC1E0C5BB80E0B1DFBC01990F880BC1
S11301F0990BF2D660938F027093900280939102D0
S11302009093920218BA88EEDDD5C8BB18BA88E676
S1130210D9D5DDD5C82ED12CE12CF12CFE2CED2C1A
S1130220DC2CCC24D4D5C82AFE2CED2CDC2CCC24FC
S1130230CED5C82AFE2CED2CDC2CCC24C8D5C8BBCA
S1130240C82AF094E094D094C094C11CD11CE11C41
S1130250F11CC0929B02D0929C02E0929D02F0920B
S11302609E0283E085BB60919B0270919C02809109
S11302709D0290919E02B0D620E030E042EA58E41C
S113028010D69B01AC01A9D52BED3FE049E450E425
S113029033D76093A0027093A1028093A20290933B
S11302A0A30290918E0289E2989F812D1124829558
S11302B08F7024E6829F901911249111C9C0109265
S11302C08E0260912A0170912B0180912C019091F2
S11302D02D012091A0023091A1024091A2025091DF
S11302E0A3027AD560933A0270933B0280933C0256
S11302F090933D0260913A0270913B0280913C02DE
S113030090913D0220914402309145024091460271
S11303105091470261D52DEC3CEC4CE45DE3C1D532
S113032060933601709337018093380190933901BB
S113033080913A0290913B02A0913C02B0913D021F
S11303408093440290934502A0934602B0934702DF
S113035060913A0270913B0280913C0290913D027F
S1130360209104013091050140910601509107014B
S11303708090360190903701A0903801B0903901F7
S113038040900001509001016090020170900301BF
S1130390B3D66B017C01A3019201C501B401ACD6B3
S11303A09B01AC01C701B60118D560939302709309
S11303B094028093950290939602609193027091B7
S11303C09402809195029091960220911D013091A2
S11303D01E0140911F01509120018AD618168CF4F9
S11303E080911D0190911E01A0911F01B0912001E7
S11303F08093930290939402A0939502B0939602F3
S113040027C080911D0190911E01A0911F01B09100
S113041020012091930230919402409195025091D1
S11304209602BC01CD01905863D618168CF48091C5
S11304301D0190911E01A0911F01B0912001B0589F
S11304408093930290939402A0939502B0939602A2
S113045020918E028DEC289F812D112486958695FE
S11304608695880F982F990F990F890F28131FC10C
S11304708091930290919402A0919502B09196027A
S11304808093210190932201A0932301B09324012E
S11304906091A0027091A1028091A2029091A302A6
S11304A02091A4023091A5024091A6025091A70286
S11304B093D42AE037ED43EA5BE3F3D460932E014F
S11304C070932F0180933001909331018091A002A9
S11304D09091A102A091A202B091A3028093A402E0
S11304E09093A502A093A602B093A7026091210164
S11304F070912201809123019091240120912E0179
S113050030912F01409130015091310165D46093B5
S11305109702709398028093990290939A02609143
S11305209702709198028091990290919A02209179
S113053054023091550240915602509157024DD4C5
S1130540609354027093550280935602909357021D
S113055060918A0270918B0280918C0290918D023D
S11305602091190130911A0140911B0150911C01F5
S1130570BFD518160CF042C060918A0270918B02AC
S113058080918C0290918D022091190130911A0171
S113059040911B0150911C0180900C0190900D0121
S11305A0A0900E01B0900F01C0905402D09055025B
S11305B0E0905602F09057020FD4A501940171D433
S11305C09B01AC01C701B60107D460935402709338
S11305D0550280935602909357028091190190918D
S11305E01A01A0911B01B0911C0180938A0290937F
S11305F08B02A0938C02B0938D0259C08091190193
S113060090911A01A0911B01B0911C0120918A02C2
S113061030918B0240918C0250918D02BC01CD012E
S1130620905866D518160CF042C060918A027091F9
S11306308B0280918C0290918D022091190130914E
S11306401A0140911B0150911C0180900C01909063
S11306500D01A0900E01B0900F01C0905402D090F3
S11306605502E0905602F0905702B7D3A5019401C9
S113067018D49B01AC01C701B601AED360935402F8
S113068070935502809356029093570280911901FA
S113069090911A01A0911B01B0911C01B058809354
S11306A08A0290938B02A0938C02B0938D02809166
S11306B08E028F5F80938E0280918A0290918B02CA
S11306C0A0918C02B0918D028093500290935102BC
S11306D0A0935202B093530260918F0270919002E2
S11306E0809191029091920220E030E040E85AE338
S11306F003D520E030E040EA50E4FED420E030E0CE
S113070040E250E469D320E030E040E251E4F4D424
S1130710DC01CB01B05880934C0290934D02A0931E
S11307204E02B0934F026091500270915102809139
S113073052029091530220914C0230914D0240910B
S11307404E0250914F0248D360933E0270933F0291
S1130750809340029093410280903E0290903F0229
S1130760A0904002B09041024090140150901501B5
S113077060901601709017016091A8027091A9020F
S11307808091AA029091AB02209110013091110145
S11307904091120150911301AFD42FE632E143E0AE
S11307A05AE3AAD46B017C01A3019201C501B401EF
S11307B0A3D49B01AC01C701B6010FD3DAD3709364
S11307C027016093260160912E0170912F01809181
S11307D0300190913101E0902601F09027012FED36
S11307E030EE4BE85DE388D44B015C01B701FF0CAC
S11307F0880B990BF1D39B01AC01C501B401EDD277
S1130800B8D3709327016093260160913E027091E2
S11308103F0280914002909141022091A8023091C0
S1130820A9024091AA025091AB02D7D26093A802C8
S11308307093A9028093AA029093AB02809126013F
S11308409091270149978CF188E190E090932701DA
S1130850809326016091260170912701C090A8021F
S1130860D090A902E090AA02F090AB0268517109FD
S1130870072E000C880B990BAFD32EE93EE549EA0D
S11308805DE30FD320E030E040E450E40AD39B0161
S1130890AC01C701B601A0D26093A8027093A9026B
S11308A08093AA029093AB0237C080912601909165
S11308B02701883E9F4F84F588EE9FEF9093270190
S11308C0809326016091260170912701C090A802AF
S11308D0D090A902E090AA02F090AB02685E7F4F2C
S11308E0072E000C880B990B77D32EE93EE549EAD5
S11308F05DE3D7D220E030E040E450E4D2D29B0163
S1130900AC01C701B60168D26093A8027093A90232
S11309108093AA029093AB02609126017091270103
S1130920072E000C880B990B57D3CFDB809128013D
S11309309091290101969093290180932801FF91B8
S1130940EF91CF91BF91AF919F918F917F916F91D3
S11309505F914F913F912F91FF90EF90DF90CF9057
S1130960BF90AF909F908F907F906F905F904F90CB
S11309700F900BBE0F900FBE0F901F901895CF9342
S1130980DF93CDB7DEB7AC970FB6F894DEBF0FBEDA
S1130990CDBF8EEF8C838B838A838983BAD100D2B7
S11309A008D2C4D1C8D1DAD110928900109288003B
S11309B01DBC1CBC60E070E0CB0187DBECD1B2DB7A
S11309C083E882BF7894B12C0F2EFCE29F2EF02D89
S11309D00F2EF3E0AF2EF02D7E018DE2E80EF11C18
S11309E00F2EFAE5CF2EF2E0DF2EF02D6894772457
S11309F071F8882483942DC18091AC028130E1F098
S1130A0018F08230E1F120C1E0919F02F0E0E65C51
S1130A10FE4F80818F3F69F4809159028F5F8093EC
S1130A20590280915902843009F00EC18092AC02BF
S1130A300BC11092590208C1E091590281E08E0F56
S1130A4080935902F0E0A0919F02B0E0A65CBE4FF3
S1130A508C91E65AFD4F808380915902883009F0C9
S1130A60F3C0F601958180911801981303C0709228
S1130A70AC02EAC01092AC0210925902E5C0E091B7
S1130A80590281E08E0F80935902F0E0A0919F02F9
S1130A90B0E0A65CBE4F8C91E65AFD4F8083E09196
S1130AA09F02F0E0E65CFE4F8081B80EF60194816F
S1130AB0809159029813B7C08781B812AEC086815D
S1130AC0823009F0AAC0608571858285938584D2BD
S1130AD020E030E04AE754E4E4D160932A017093C3
S1130AE02B0180932C0190932D01F601648575856B
S1130AF08685978571D220E030E04AE754E4D1D16D
S1130B0060931D0170931E0180931F019093200137
S1130B10F60160897189828993895ED220E030E090
S1130B204AE754E4BED16093190170931A0180938B
S1130B301B0190931C01F601648975898689978944
S1130B404BD220E030E04AE754E4ABD16093140187
S1130B50709315018093160190931701F601608D2F
S1130B60718D828D938D38D220E030E04AE754E4D1
S1130B7098D16093100170931101809312019093A6
S1130B801301F601648D758D868D978D25D220E035
S1130B9030E04AE754E485D160930C0170930D0171
S1130BA080930E0190930F01F60160A171A182A1BF
S1130BB093A112D220E030E04AE754E472D160936A
S1130BC008017093090180930A0190930B01F601C7
S1130BD064A175A186A197A1FFD120E030E04AE786
S1130BE054E45FD16093040170930501809306017E
S1130BF090930701F60160A571A582A593A5ECD198
S1130C0020E030E04AE754E44CD160930001709353
S1130C10010180930201909303011092AC0210929F
S1130C205902B12C11C0F601948180915902981790
S1130C3020F0809159028D3238F086E6BFD01092B0
S1130C40AC0210925902B12C80919F028F5F809365
S1130C509F0290919F02809158029813CDCE80916B
S1130C602801909129014497A4F31092290110922C
S1130C702801809118018E839D82AF82188660912D
S1130C802A0170912B0180912C0190912D0120E07B
S1130C9030E04AE754E430D26CD169877A878B8795
S1130CA09C8760911D0170911E0180911F0190919C
S1130CB0200120E030E04AE754E41ED25AD16D8787
S1130CC07E878F87988B6091190170911A018091AA
S1130CD01B0190911C0120E030E04AE754E40CD25F
S1130CE048D1698B7A8B8B8B9C8BFE0139968191D1
S1130CF09885890F8887EE15FF05C9F78E010F5F68
S1130D001F4FF80181918F0159D00E151F05C9F7A6
S1130D10A0CF8FEF8ABB84BB88E081BB87E687BB0B
S1130D208AE182B91BBA87E088BB089584E083BF57
S1130D3081E087BF089582EE8FBD81E18EBD8FE88B
S1130D4091E097BD86BD10927900109278001BBC8B
S1130D501ABC19BC18BC1DBC1CBC089582EB809342
S1130D608B0081E180938A008FE891E09093810069
S1130D70809380001092830010928200109287006A
S1130D8010928600109285001092840010928900BF
S1130D9010928800089580E487B986E886B908959A
S1130DA01BB888E98AB986E08093950087E689B9FB
S1130DB0089580E58DB981E08EB908955D9BFECFDD
S1130DC08CB908958FB9779BFECF8FB108951FB862
S1130DD0779BFECF8FB108955058BB27AA270ED01A
S1130DE04DC13ED130F043D120F031F49F3F11F496
S1130DF01EF433C10EF4E095E7FB29C1E92F4FD16E
S1130E0080F3BA17620773078407950718F071F423
S1130E109EF567C10EF4E0950B2EBA2FA02D0B01A1
S1130E20B90190010C01CA01A0011124FF27591B2B
S1130E3099F0593F50F4503E68F11A16F040A22F31
S1130E40232F342F4427585FF3CF469537952795A2
S1130E50A795F0405395C9F77EF41F16BA0B620BA1
S1130E60730B840BBAF09150A1F0FF0FBB1F661FE8
S1130E70771F881FC2F70EC0BA0F621F731F841F2B
S1130E8048F4879577956795B795F7959E3F08F051
S1130E90B3CF9395880F08F09927EE0F9795879510
S1130EA008950CD0EBC0E3D040F0DAD030F021F458
S1130EB05F3F19F0CCC0511115C1CFC0F0D098F3E9
S1130EC09923C9F35523B1F3951B550BBB27AA27C7
S1130ED062177307840738F09F5F5F4F220F331F39
S1130EE0441FAA1FA9F333D00E2E3AF0E0E830D005
S1130EF091505040E695001CCAF729D0FE2F27D008
S1130F00660F771F881FBB1F261737074807AB07D5
S1130F10B0E809F0BB0B802DBF01FF2793585F4F4A
S1130F202AF09E3F510568F092C0DCC05F3FECF3AD
S1130F30983EDCF3869577956795B795F7959F5F0F
S1130F40C9F7880F911D9695879597F90895E1E063
S1130F50660F771F881FBB1F621773078407BA07C2
S1130F6020F0621B730B840BBA0BEE1F88F7E0951D
S1130F70089504D06894B111B5C0089598D088F04C
S1130F809F5790F0B92F9927B751A0F0D1F0660F71
S1130F90771F881F991F1AF0BA95C9F712C0B1308C
S1130FA081F09FD0B1E008959CC0672F782F8827E7
S1130FB0B85F39F0B93FCCF3869577956795B395CB
S1130FC0D9F73EF490958095709561957F4F8F4F3A
S1130FD09F4F0895E89409C097FB3EF4909580953F
S1130FE0709561957F4F8F4F9F4F9923A9F0F92FEB
S1130FF096E9BB279395F695879577956795B79569
S1131000F111F8CFFAF4BB0F11F460FF1BC06F5F4E
S11310107F4F8F4F9F4F16C0882311F096E911C060
S1131020772321F09EE8872F762F05C0662371F081
S113103096E8862F70E060E02AF09A95660F771F95
S1131040881FDAF7880F9695879597F9089597F989
S11310509F6780E870E060E008959FEF80EC08955A
S113106000240A9416161706180609060895002483
S11310700A9412161306140605060895092E0394FD
S1131080000C11F4882352F0BB0F40F4BF2B11F471
S113109060FF04C06F5F7F4F8F4F9F4F089557FDD0
S11310A09058440F551F59F05F3F71F04795880FD2
S11310B097FB991F61F09F3F79F087950895121669
S11310C013061406551FF2CF4695F1DF08C0161615
S11310D017061806991FF1CF8695710561050894C6
S11310E00895E894BB2766277727CB0197F90895DD
S11310F066D008F48FEF08950BD0C0CFB1DF28F08D
S1131100B6DF18F0952309F0A2CFA7CF1124EACFB8
S1131110C6DFA0F3959FD1F3950F50E0551F629F52
S1131120F001729FBB27F00DB11D639FAA27F00D3C
S1131130B11DAA1F649F6627B00DA11D661F829F63
S11311402227B00DA11D621F739FB00DA11D621F48
S1131150839FA00D611D221F749F3327A00D611D65
S1131160231F849F600D211D822F762F6A2F112447
S11311709F5750408AF0E1F088234AF0EE0FFF1F9A
S1131180BB1F661F771F881F91505040A9F79E3FD1
S1131190510570F05CCFA6CF5F3FECF3983EDCF3D3
S11311A0869577956795B795F795E7959F5FC1F70E
S11311B0FE2B880F911D9695879597F90895990FA1
S11311C00008550FAA0BE0E8FEEF16161706E8070D
S11311D0F907C0F012161306E407F50798F0621B2E
S11311E0730B840B950B39F40A2661F0232B242B03
S11311F0252B21F408950A2609F4A140A6958FEF22
S10D1200811D811D0895F894FFCFAD
S113120A0AD7233C0000C03F000060400000404071
S113121A000020426666A63F010000803F0000806D
S109122A3FCDCC4C3E0058
S9030000FC
